{
  "contractName": "DEXContract",
  "abi": [
    {
      "inputs": [
        {
          "internalType": "address",
          "name": "mtaAddr",
          "type": "address"
        },
        {
          "internalType": "address",
          "name": "mtbAddr",
          "type": "address"
        },
        {
          "internalType": "address",
          "name": "mtcAddr",
          "type": "address"
        },
        {
          "internalType": "address",
          "name": "mtdAddr",
          "type": "address"
        }
      ],
      "payable": false,
      "stateMutability": "nonpayable",
      "type": "constructor"
    },
    {
      "anonymous": false,
      "inputs": [
        {
          "indexed": false,
          "internalType": "uint256",
          "name": "amount",
          "type": "uint256"
        },
        {
          "indexed": false,
          "internalType": "string",
          "name": "tokenType",
          "type": "string"
        }
      ],
      "name": "Bought",
      "type": "event"
    },
    {
      "anonymous": false,
      "inputs": [
        {
          "indexed": false,
          "internalType": "uint256",
          "name": "amount",
          "type": "uint256"
        },
        {
          "indexed": false,
          "internalType": "string",
          "name": "tokenType",
          "type": "string"
        }
      ],
      "name": "Sold",
      "type": "event"
    },
    {
      "constant": true,
      "inputs": [],
      "name": "mta",
      "outputs": [
        {
          "internalType": "contract MTA",
          "name": "",
          "type": "address"
        }
      ],
      "payable": false,
      "stateMutability": "view",
      "type": "function"
    },
    {
      "constant": true,
      "inputs": [],
      "name": "mtb",
      "outputs": [
        {
          "internalType": "contract MTB",
          "name": "",
          "type": "address"
        }
      ],
      "payable": false,
      "stateMutability": "view",
      "type": "function"
    },
    {
      "constant": true,
      "inputs": [],
      "name": "mtc",
      "outputs": [
        {
          "internalType": "contract MTC",
          "name": "",
          "type": "address"
        }
      ],
      "payable": false,
      "stateMutability": "view",
      "type": "function"
    },
    {
      "constant": true,
      "inputs": [],
      "name": "mtd",
      "outputs": [
        {
          "internalType": "contract MTD",
          "name": "",
          "type": "address"
        }
      ],
      "payable": false,
      "stateMutability": "view",
      "type": "function"
    },
    {
      "constant": false,
      "inputs": [],
      "name": "buyMTA",
      "outputs": [],
      "payable": true,
      "stateMutability": "payable",
      "type": "function"
    },
    {
      "constant": false,
      "inputs": [],
      "name": "buyMTB",
      "outputs": [],
      "payable": true,
      "stateMutability": "payable",
      "type": "function"
    },
    {
      "constant": false,
      "inputs": [],
      "name": "buyMTC",
      "outputs": [],
      "payable": true,
      "stateMutability": "payable",
      "type": "function"
    },
    {
      "constant": false,
      "inputs": [],
      "name": "buyMTD",
      "outputs": [],
      "payable": true,
      "stateMutability": "payable",
      "type": "function"
    },
    {
      "constant": false,
      "inputs": [
        {
          "internalType": "uint256",
          "name": "amount",
          "type": "uint256"
        }
      ],
      "name": "sellMTA",
      "outputs": [],
      "payable": false,
      "stateMutability": "nonpayable",
      "type": "function"
    },
    {
      "constant": false,
      "inputs": [
        {
          "internalType": "uint256",
          "name": "amount",
          "type": "uint256"
        }
      ],
      "name": "sellMTB",
      "outputs": [],
      "payable": false,
      "stateMutability": "nonpayable",
      "type": "function"
    },
    {
      "constant": false,
      "inputs": [
        {
          "internalType": "uint256",
          "name": "amount",
          "type": "uint256"
        }
      ],
      "name": "sellMTC",
      "outputs": [],
      "payable": false,
      "stateMutability": "nonpayable",
      "type": "function"
    },
    {
      "constant": false,
      "inputs": [
        {
          "internalType": "uint256",
          "name": "amount",
          "type": "uint256"
        }
      ],
      "name": "sellMTD",
      "outputs": [],
      "payable": false,
      "stateMutability": "nonpayable",
      "type": "function"
    }
  ],
  "bytecode": "0x608060405234801561001057600080fd5b506040516120f53803806120f58339818101604052608081101561003357600080fd5b8101908080519060200190929190805190602001909291908051906020019092919080519060200190929190505050836000806101000a81548173ffffffffffffffffffffffffffffffffffffffff021916908373ffffffffffffffffffffffffffffffffffffffff16021790555082600160006101000a81548173ffffffffffffffffffffffffffffffffffffffff021916908373ffffffffffffffffffffffffffffffffffffffff16021790555081600260006101000a81548173ffffffffffffffffffffffffffffffffffffffff021916908373ffffffffffffffffffffffffffffffffffffffff16021790555080600360006101000a81548173ffffffffffffffffffffffffffffffffffffffff021916908373ffffffffffffffffffffffffffffffffffffffff16021790555050505050611f7d806101786000396000f3fe6080604052600436106100a75760003560e01c8063afecf8d711610064578063afecf8d7146101c8578063cd6286af1461021f578063d84e1be21461025a578063e98d1558146102b1578063f57cd05c14610308578063fd3d3e9c14610312576100a7565b80631bfd9f30146100ac578063407d7a73146100e757806344c043731461012257806351312ad11461012c578063a288fa0714610183578063aba04bfe146101be575b600080fd5b3480156100b857600080fd5b506100e5600480360360208110156100cf57600080fd5b810190808035906020019092919050505061031c565b005b3480156100f357600080fd5b506101206004803603602081101561010a57600080fd5b81019080803590602001909291905050506106d1565b005b61012a610a84565b005b34801561013857600080fd5b50610141610dac565b604051808273ffffffffffffffffffffffffffffffffffffffff1673ffffffffffffffffffffffffffffffffffffffff16815260200191505060405180910390f35b34801561018f57600080fd5b506101bc600480360360208110156101a657600080fd5b8101908080359060200190929190505050610dd2565b005b6101c6611187565b005b3480156101d457600080fd5b506101dd6114af565b604051808273ffffffffffffffffffffffffffffffffffffffff1673ffffffffffffffffffffffffffffffffffffffff16815260200191505060405180910390f35b34801561022b57600080fd5b506102586004803603602081101561024257600080fd5b81019080803590602001909291905050506114d5565b005b34801561026657600080fd5b5061026f61188a565b604051808273ffffffffffffffffffffffffffffffffffffffff1673ffffffffffffffffffffffffffffffffffffffff16815260200191505060405180910390f35b3480156102bd57600080fd5b506102c66118b0565b604051808273ffffffffffffffffffffffffffffffffffffffff1673ffffffffffffffffffffffffffffffffffffffff16815260200191505060405180910390f35b6103106118d5565b005b61031a611bfd565b005b60008111610375576040517f08c379a0000000000000000000000000000000000000000000000000000000008152600401808060200182810382526025815260200180611f246025913960400191505060405180910390fd5b6000600260009054906101000a900473ffffffffffffffffffffffffffffffffffffffff1673ffffffffffffffffffffffffffffffffffffffff1663dd62ed3e33306040518363ffffffff1660e01b8152600401808373ffffffffffffffffffffffffffffffffffffffff1673ffffffffffffffffffffffffffffffffffffffff1681526020018273ffffffffffffffffffffffffffffffffffffffff1673ffffffffffffffffffffffffffffffffffffffff1681526020019250505060206040518083038186803b15801561044a57600080fd5b505afa15801561045e573d6000803e3d6000fd5b505050506040513d602081101561047457600080fd5b81019080805190602001909291905050509050818110156104fd576040517f08c379a00000000000000000000000000000000000000000000000000000000081526004018080602001828103825260198152602001807f436865636b2074686520746f6b656e20616c6c6f77616e63650000000000000081525060200191505060405180910390fd5b600260009054906101000a900473ffffffffffffffffffffffffffffffffffffffff1673ffffffffffffffffffffffffffffffffffffffff166323b872dd3330856040518463ffffffff1660e01b8152600401808473ffffffffffffffffffffffffffffffffffffffff1673ffffffffffffffffffffffffffffffffffffffff1681526020018373ffffffffffffffffffffffffffffffffffffffff1673ffffffffffffffffffffffffffffffffffffffff1681526020018281526020019350505050602060405180830381600087803b1580156105da57600080fd5b505af11580156105ee573d6000803e3d6000fd5b505050506040513d602081101561060457600080fd5b8101908080519060200190929190505050503373ffffffffffffffffffffffffffffffffffffffff166108fc839081150290604051600060405180830381858888f1935050505015801561065c573d6000803e3d6000fd5b507f1e97059d314fe11a468a18f258c66ec5038777a1d0aa9846ce6f2c9d73f775fb826040518082815260200180602001828103825260038152602001807f4d544300000000000000000000000000000000000000000000000000000000008152506020019250505060405180910390a15050565b6000811161072a576040517f08c379a0000000000000000000000000000000000000000000000000000000008152600401808060200182810382526025815260200180611f246025913960400191505060405180910390fd5b60008060009054906101000a900473ffffffffffffffffffffffffffffffffffffffff1673ffffffffffffffffffffffffffffffffffffffff1663dd62ed3e33306040518363ffffffff1660e01b8152600401808373ffffffffffffffffffffffffffffffffffffffff1673ffffffffffffffffffffffffffffffffffffffff1681526020018273ffffffffffffffffffffffffffffffffffffffff1673ffffffffffffffffffffffffffffffffffffffff1681526020019250505060206040518083038186803b1580156107fe57600080fd5b505afa158015610812573d6000803e3d6000fd5b505050506040513d602081101561082857600080fd5b81019080805190602001909291905050509050818110156108b1576040517f08c379a00000000000000000000000000000000000000000000000000000000081526004018080602001828103825260198152602001807f436865636b2074686520746f6b656e20616c6c6f77616e63650000000000000081525060200191505060405180910390fd5b6000809054906101000a900473ffffffffffffffffffffffffffffffffffffffff1673ffffffffffffffffffffffffffffffffffffffff166323b872dd3330856040518463ffffffff1660e01b8152600401808473ffffffffffffffffffffffffffffffffffffffff1673ffffffffffffffffffffffffffffffffffffffff1681526020018373ffffffffffffffffffffffffffffffffffffffff1673ffffffffffffffffffffffffffffffffffffffff1681526020018281526020019350505050602060405180830381600087803b15801561098d57600080fd5b505af11580156109a1573d6000803e3d6000fd5b505050506040513d60208110156109b757600080fd5b8101908080519060200190929190505050503373ffffffffffffffffffffffffffffffffffffffff166108fc839081150290604051600060405180830381858888f19350505050158015610a0f573d6000803e3d6000fd5b507f1e97059d314fe11a468a18f258c66ec5038777a1d0aa9846ce6f2c9d73f775fb826040518082815260200180602001828103825260038152602001807f4d544100000000000000000000000000000000000000000000000000000000008152506020019250505060405180910390a15050565b60003490506000600160009054906101000a900473ffffffffffffffffffffffffffffffffffffffff1673ffffffffffffffffffffffffffffffffffffffff166370a08231306040518263ffffffff1660e01b8152600401808273ffffffffffffffffffffffffffffffffffffffff1673ffffffffffffffffffffffffffffffffffffffff16815260200191505060206040518083038186803b158015610b2a57600080fd5b505afa158015610b3e573d6000803e3d6000fd5b505050506040513d6020811015610b5457600080fd5b8101908080519060200190929190505050905060008211610bdd576040517f08c379a000000000000000000000000000000000000000000000000000000000815260040180806020018281038252601b8152602001807f596f75206e65656420746f2073656e6420736f6d65206574686572000000000081525060200191505060405180910390fd5b80821115610c53576040517f08c379a00000000000000000000000000000000000000000000000000000000081526004018080602001828103825260208152602001807f4e6f7420656e6f75676820746f6b656e7320696e20746865207265736572766581525060200191505060405180910390fd5b600160009054906101000a900473ffffffffffffffffffffffffffffffffffffffff1673ffffffffffffffffffffffffffffffffffffffff1663a9059cbb33846040518363ffffffff1660e01b8152600401808373ffffffffffffffffffffffffffffffffffffffff1673ffffffffffffffffffffffffffffffffffffffff16815260200182815260200192505050602060405180830381600087803b158015610cfc57600080fd5b505af1158015610d10573d6000803e3d6000fd5b505050506040513d6020811015610d2657600080fd5b8101908080519060200190929190505050507f90f462fda83ec38c746f5697fc906e3c3b5e977a73311485b48bdfcb3bd7d17b826040518082815260200180602001828103825260038152602001807f4d544200000000000000000000000000000000000000000000000000000000008152506020019250505060405180910390a15050565b600160009054906101000a900473ffffffffffffffffffffffffffffffffffffffff1681565b60008111610e2b576040517f08c379a0000000000000000000000000000000000000000000000000000000008152600401808060200182810382526025815260200180611f246025913960400191505060405180910390fd5b6000600360009054906101000a900473ffffffffffffffffffffffffffffffffffffffff1673ffffffffffffffffffffffffffffffffffffffff1663dd62ed3e33306040518363ffffffff1660e01b8152600401808373ffffffffffffffffffffffffffffffffffffffff1673ffffffffffffffffffffffffffffffffffffffff1681526020018273ffffffffffffffffffffffffffffffffffffffff1673ffffffffffffffffffffffffffffffffffffffff1681526020019250505060206040518083038186803b158015610f0057600080fd5b505afa158015610f14573d6000803e3d6000fd5b505050506040513d6020811015610f2a57600080fd5b8101908080519060200190929190505050905081811015610fb3576040517f08c379a00000000000000000000000000000000000000000000000000000000081526004018080602001828103825260198152602001807f436865636b2074686520746f6b656e20616c6c6f77616e63650000000000000081525060200191505060405180910390fd5b600360009054906101000a900473ffffffffffffffffffffffffffffffffffffffff1673ffffffffffffffffffffffffffffffffffffffff166323b872dd3330856040518463ffffffff1660e01b8152600401808473ffffffffffffffffffffffffffffffffffffffff1673ffffffffffffffffffffffffffffffffffffffff1681526020018373ffffffffffffffffffffffffffffffffffffffff1673ffffffffffffffffffffffffffffffffffffffff1681526020018281526020019350505050602060405180830381600087803b15801561109057600080fd5b505af11580156110a4573d6000803e3d6000fd5b505050506040513d60208110156110ba57600080fd5b8101908080519060200190929190505050503373ffffffffffffffffffffffffffffffffffffffff166108fc839081150290604051600060405180830381858888f19350505050158015611112573d6000803e3d6000fd5b507f1e97059d314fe11a468a18f258c66ec5038777a1d0aa9846ce6f2c9d73f775fb826040518082815260200180602001828103825260038152602001807f4d544400000000000000000000000000000000000000000000000000000000008152506020019250505060405180910390a15050565b60003490506000600260009054906101000a900473ffffffffffffffffffffffffffffffffffffffff1673ffffffffffffffffffffffffffffffffffffffff166370a08231306040518263ffffffff1660e01b8152600401808273ffffffffffffffffffffffffffffffffffffffff1673ffffffffffffffffffffffffffffffffffffffff16815260200191505060206040518083038186803b15801561122d57600080fd5b505afa158015611241573d6000803e3d6000fd5b505050506040513d602081101561125757600080fd5b81019080805190602001909291905050509050600082116112e0576040517f08c379a000000000000000000000000000000000000000000000000000000000815260040180806020018281038252601b8152602001807f596f75206e65656420746f2073656e6420736f6d65206574686572000000000081525060200191505060405180910390fd5b80821115611356576040517f08c379a00000000000000000000000000000000000000000000000000000000081526004018080602001828103825260208152602001807f4e6f7420656e6f75676820746f6b656e7320696e20746865207265736572766581525060200191505060405180910390fd5b600260009054906101000a900473ffffffffffffffffffffffffffffffffffffffff1673ffffffffffffffffffffffffffffffffffffffff1663a9059cbb33846040518363ffffffff1660e01b8152600401808373ffffffffffffffffffffffffffffffffffffffff1673ffffffffffffffffffffffffffffffffffffffff16815260200182815260200192505050602060405180830381600087803b1580156113ff57600080fd5b505af1158015611413573d6000803e3d6000fd5b505050506040513d602081101561142957600080fd5b8101908080519060200190929190505050507f90f462fda83ec38c746f5697fc906e3c3b5e977a73311485b48bdfcb3bd7d17b826040518082815260200180602001828103825260038152602001807f4d544300000000000000000000000000000000000000000000000000000000008152506020019250505060405180910390a15050565b600260009054906101000a900473ffffffffffffffffffffffffffffffffffffffff1681565b6000811161152e576040517f08c379a0000000000000000000000000000000000000000000000000000000008152600401808060200182810382526025815260200180611f246025913960400191505060405180910390fd5b6000600160009054906101000a900473ffffffffffffffffffffffffffffffffffffffff1673ffffffffffffffffffffffffffffffffffffffff1663dd62ed3e33306040518363ffffffff1660e01b8152600401808373ffffffffffffffffffffffffffffffffffffffff1673ffffffffffffffffffffffffffffffffffffffff1681526020018273ffffffffffffffffffffffffffffffffffffffff1673ffffffffffffffffffffffffffffffffffffffff1681526020019250505060206040518083038186803b15801561160357600080fd5b505afa158015611617573d6000803e3d6000fd5b505050506040513d602081101561162d57600080fd5b81019080805190602001909291905050509050818110156116b6576040517f08c379a00000000000000000000000000000000000000000000000000000000081526004018080602001828103825260198152602001807f436865636b2074686520746f6b656e20616c6c6f77616e63650000000000000081525060200191505060405180910390fd5b600160009054906101000a900473ffffffffffffffffffffffffffffffffffffffff1673ffffffffffffffffffffffffffffffffffffffff166323b872dd3330856040518463ffffffff1660e01b8152600401808473ffffffffffffffffffffffffffffffffffffffff1673ffffffffffffffffffffffffffffffffffffffff1681526020018373ffffffffffffffffffffffffffffffffffffffff1673ffffffffffffffffffffffffffffffffffffffff1681526020018281526020019350505050602060405180830381600087803b15801561179357600080fd5b505af11580156117a7573d6000803e3d6000fd5b505050506040513d60208110156117bd57600080fd5b8101908080519060200190929190505050503373ffffffffffffffffffffffffffffffffffffffff166108fc839081150290604051600060405180830381858888f19350505050158015611815573d6000803e3d6000fd5b507f1e97059d314fe11a468a18f258c66ec5038777a1d0aa9846ce6f2c9d73f775fb826040518082815260200180602001828103825260038152602001807f4d544200000000000000000000000000000000000000000000000000000000008152506020019250505060405180910390a15050565b600360009054906101000a900473ffffffffffffffffffffffffffffffffffffffff1681565b6000809054906101000a900473ffffffffffffffffffffffffffffffffffffffff1681565b60003490506000600360009054906101000a900473ffffffffffffffffffffffffffffffffffffffff1673ffffffffffffffffffffffffffffffffffffffff166370a08231306040518263ffffffff1660e01b8152600401808273ffffffffffffffffffffffffffffffffffffffff1673ffffffffffffffffffffffffffffffffffffffff16815260200191505060206040518083038186803b15801561197b57600080fd5b505afa15801561198f573d6000803e3d6000fd5b505050506040513d60208110156119a557600080fd5b8101908080519060200190929190505050905060008211611a2e576040517f08c379a000000000000000000000000000000000000000000000000000000000815260040180806020018281038252601b8152602001807f596f75206e65656420746f2073656e6420736f6d65206574686572000000000081525060200191505060405180910390fd5b80821115611aa4576040517f08c379a00000000000000000000000000000000000000000000000000000000081526004018080602001828103825260208152602001807f4e6f7420656e6f75676820746f6b656e7320696e20746865207265736572766581525060200191505060405180910390fd5b600360009054906101000a900473ffffffffffffffffffffffffffffffffffffffff1673ffffffffffffffffffffffffffffffffffffffff1663a9059cbb33846040518363ffffffff1660e01b8152600401808373ffffffffffffffffffffffffffffffffffffffff1673ffffffffffffffffffffffffffffffffffffffff16815260200182815260200192505050602060405180830381600087803b158015611b4d57600080fd5b505af1158015611b61573d6000803e3d6000fd5b505050506040513d6020811015611b7757600080fd5b8101908080519060200190929190505050507f90f462fda83ec38c746f5697fc906e3c3b5e977a73311485b48bdfcb3bd7d17b826040518082815260200180602001828103825260038152602001807f4d544400000000000000000000000000000000000000000000000000000000008152506020019250505060405180910390a15050565b600034905060008060009054906101000a900473ffffffffffffffffffffffffffffffffffffffff1673ffffffffffffffffffffffffffffffffffffffff166370a08231306040518263ffffffff1660e01b8152600401808273ffffffffffffffffffffffffffffffffffffffff1673ffffffffffffffffffffffffffffffffffffffff16815260200191505060206040518083038186803b158015611ca257600080fd5b505afa158015611cb6573d6000803e3d6000fd5b505050506040513d6020811015611ccc57600080fd5b8101908080519060200190929190505050905060008211611d55576040517f08c379a000000000000000000000000000000000000000000000000000000000815260040180806020018281038252601b8152602001807f596f75206e65656420746f2073656e6420736f6d65206574686572000000000081525060200191505060405180910390fd5b80821115611dcb576040517f08c379a00000000000000000000000000000000000000000000000000000000081526004018080602001828103825260208152602001807f4e6f7420656e6f75676820746f6b656e7320696e20746865207265736572766581525060200191505060405180910390fd5b6000809054906101000a900473ffffffffffffffffffffffffffffffffffffffff1673ffffffffffffffffffffffffffffffffffffffff1663a9059cbb33846040518363ffffffff1660e01b8152600401808373ffffffffffffffffffffffffffffffffffffffff1673ffffffffffffffffffffffffffffffffffffffff16815260200182815260200192505050602060405180830381600087803b158015611e7357600080fd5b505af1158015611e87573d6000803e3d6000fd5b505050506040513d6020811015611e9d57600080fd5b8101908080519060200190929190505050507f90f462fda83ec38c746f5697fc906e3c3b5e977a73311485b48bdfcb3bd7d17b826040518082815260200180602001828103825260038152602001807f4d544100000000000000000000000000000000000000000000000000000000008152506020019250505060405180910390a1505056fe596f75206e65656420746f2073656c6c206174206c6561737420736f6d6520746f6b656e73a265627a7a723158203ccfdb444d5ee1af76f7611380d32561cc41ee3c32b2030b1a37c9d2159f135764736f6c634300050d0032",
  "source": "// SPDX-License-Identifier: MIT\npragma solidity >=0.5 <0.5.16;\n\nimport \"./MTA.sol\";\nimport \"./MTB.sol\";\nimport \"./MTC.sol\";\nimport \"./MTD.sol\";\n\ncontract DEXContract {\n\n    // enum TokenType{ _MTA, _MTB, _MTC, _MTD }\n\n    MTA public mta;\n    MTB public mtb;\n    MTC public mtc;\n    MTD public mtd;\n\n    event Bought(uint256 amount, string tokenType);\n    event Sold(uint256 amount, string tokenType);\n\n    constructor(address mtaAddr, address mtbAddr, address mtcAddr, address mtdAddr) public {\n        mta = MTA(mtaAddr);\n        mtb = MTB(mtbAddr);\n        mtc = MTC(mtcAddr);\n        mtd = MTD(mtdAddr);\n    }\n\n    function buyMTA() payable public {\n        uint256 amountTobuy = msg.value;\n            \n        uint256 dexBalance = mta.balanceOf(address(this));\n        require(amountTobuy > 0, \"You need to send some ether\");\n        require(amountTobuy <= dexBalance, \"Not enough tokens in the reserve\");\n        mta.transfer(msg.sender, amountTobuy);    \n\n        emit Bought(amountTobuy, \"MTA\");\n    }\n\n    function buyMTB() payable public {\n        uint256 amountTobuy = msg.value;\n\n        uint256 dexBalance = mtb.balanceOf(address(this));\n        require(amountTobuy > 0, \"You need to send some ether\");\n        require(amountTobuy <= dexBalance, \"Not enough tokens in the reserve\");\n        mtb.transfer(msg.sender, amountTobuy);\n\n        emit Bought(amountTobuy, \"MTB\");\n    }\n\n    function buyMTC() payable public {\n        uint256 amountTobuy = msg.value;\n\n        uint256 dexBalance = mtc.balanceOf(address(this));\n        require(amountTobuy > 0, \"You need to send some ether\");\n        require(amountTobuy <= dexBalance, \"Not enough tokens in the reserve\");\n        mtc.transfer(msg.sender, amountTobuy);\n\n        emit Bought(amountTobuy, \"MTC\");\n    }\n\n    function buyMTD() payable public {\n        uint256 amountTobuy = msg.value;\n\n        uint256 dexBalance = mtd.balanceOf(address(this));\n        require(amountTobuy > 0, \"You need to send some ether\");\n        require(amountTobuy <= dexBalance, \"Not enough tokens in the reserve\");\n        mtd.transfer(msg.sender, amountTobuy);\n\n        emit Bought(amountTobuy, \"MTD\");\n    }\n\n    function sellMTA(uint256 amount) public {\n        require(amount > 0, \"You need to sell at least some tokens\");\n        uint256 allowance = mta.allowance(msg.sender, address(this));\n        require(allowance >= amount, \"Check the token allowance\");\n        mta.transferFrom(msg.sender, address(this), amount);\n\n        msg.sender.transfer(amount);\n  \n        emit Sold(amount, \"MTA\");\n\n    }\n\n    function sellMTB(uint256 amount) public {\n        require(amount > 0, \"You need to sell at least some tokens\");\n        uint256 allowance = mtb.allowance(msg.sender, address(this));\n        require(allowance >= amount, \"Check the token allowance\");\n        mtb.transferFrom(msg.sender, address(this), amount);\n\n        msg.sender.transfer(amount);\n  \n        emit Sold(amount, \"MTB\");\n    }\n\n    function sellMTC(uint256 amount) public {\n        require(amount > 0, \"You need to sell at least some tokens\");\n        uint256 allowance = mtc.allowance(msg.sender, address(this));\n        require(allowance >= amount, \"Check the token allowance\");\n        mtc.transferFrom(msg.sender, address(this), amount);\n\n        msg.sender.transfer(amount);\n  \n        emit Sold(amount, \"MTC\");\n    }\n\n    function sellMTD(uint256 amount) public {\n\n        require(amount > 0, \"You need to sell at least some tokens\");\n        uint256 allowance = mtd.allowance(msg.sender, address(this));\n        require(allowance >= amount, \"Check the token allowance\");\n        mtd.transferFrom(msg.sender, address(this), amount);\n\n        msg.sender.transfer(amount);\n  \n        emit Sold(amount, \"MTD\");\n    }\n\n}",
  "sourcePath": "/home/jason/Documents/Github/school/fyp/dex-service/dex-controller/contracts/DEXContract.sol",
  "compiler": {
    "name": "solc",
    "version": "0.5.13+commit.5b0b510c.Emscripten.clang"
  },
  "schemaVersion": "3.4.3",
  "updatedAt": "2022-02-08T07:37:39.405Z",
  "networkType": "ethereum",
  "devdoc": {
    "methods": {}
  },
  "userdoc": {
    "methods": {}
  }
}